:100000000C946C000C948B000C948B000C948B0063
:100010000C948B000C948B000C948B000C948B0034
:100020000C948B000C948B000C948B000C948B0024
:100030000C948B000C948B000C94B41F0C948B00CC
:100040000C948B000C948B000C94BC3C0C948B0097
:100050000C948B000C948B000C948B000C948B00F4
:100060000C948B000C948B000C948B000C948B00E4
:100070000C948B000C948B000C9459010C948B0005
:100080000C948B000C948B000C948B00084AD73B8B
:100090003BCE016E84BCBFFDC12F3D6C74319ABD57
:1000A00056833DDA3D00C77F11BED9E4BB4C3E917B
:1000B0006BAAAABE000000803F05A84CCDB2D44E6A
:1000C000B93836A9020C50B9918688083CA6AAAA6C
:1000D0002ABE000000803F0011241FBECFEFD0E1F8
:1000E000DEBFCDBF11E0A0E0B1E0E8E3F7E800E05B
:1000F0000BBF02C007900D92A83AB107D9F715E0DF
:10010000A8EAB1E001C01D92AF3BB107E1F70E9440
:10011000B7090C94273D0C94000081B18C7160B339
:100120006075E6E6FEE03197F1F7000021B1482F57
:1001300050E030E02C7130704217530771F770E0D7
:1001400020B330E0A901407550706417750729F796
:100150008695A9014071507064E0559547956A9560
:10016000E1F7207430703595279535952795242B28
:10017000822B089586B38095807F18164CF426B3A1
:1001800030E020953095207F307021153105B9F78A
:10019000089594EA909374009091740097FFFCCFB7
:1001A0009AE09093730094E8909374009091740097
:1001B00097FFFCCF8093730084E880937400809154
:1001C000740087FFFCCF84E98093740084EA8093F5
:1001D00074008091740087FFFCCF8BE080937300E4
:1001E00084E8809374008091740087FFFCCF84E8DA
:1001F000809374008091740087FFFCCF809173001E
:1002000094E990937400089594EA90937400909107
:10021000740097FFFCCF9AE09093730094E890935A
:1002200074009091740097FFFCCF8093730084E872
:10023000809374008091740087FFFCCF60937300FB
:1002400084E8809374008091740087FFFCCF84E978
:1002500080937400089510929B0088E980939A001F
:1002600086E080939D00109298008FE5809399001E
:10027000789408951F931FEF1093730088E4809380
:1002800070000E94440E0E94A83C0E942B010E9414
:10029000890C1FBC85E08EBD1DBD80E78CBD84E050
:1002A00087BF78948FE087BB81B3807F81BB1F912C
:1002B00008951F920F920FB60F920BB60F92112452
:1002C0002F933F934F935F936F937F938F939F935E
:1002D000AF93BF93EF93FF93DF93CF9300D0CDB74E
:1002E000DEB780919C00898380919B00887BE1F33D
:1002F00081E08093A80189818093A9018091A70161
:10030000882309F4BFC08091A901863509F0AEC0E9
:100310001092B6018091B80180538093B50180910D
:10032000B5018A3018F089E08093B5011A8280E027
:1003300090E020E030E044E68DC0DC01A555BE4FE2
:100340005C9150535083DC01A355BE4FF901E45931
:10035000FA4F5C91549F502D1124505C5083DC0166
:10036000A255BE4F50816C91505E660F762F770F6D
:10037000770F760F570F5083DC01A155BE4F508188
:100380006C91560F50535083DC01A055BE4FF901BC
:10039000E359FA4F5C91549F502D1124505C5083C7
:1003A000DC01AF54BE4F50816C91505E660F762FCA
:1003B000770F770F760F570F5083DC01AE54BE4F87
:1003C00050816C91560F50535083DC01AD54BE4F99
:1003D000F901E259FA4F5C91549F502D1124505C61
:1003E0005083DC01AC54BE4F50816C91505E660F5F
:1003F000762F770F770F760F570F5083DC01AB54B2
:10040000BE4F50816C91560F50535083DC01AA545B
:10041000BE4FF901E159FA4F5C91549F502D1124C0
:10042000505C5083DC01A954BE4F50816C91505EEA
:10043000660F762F770F770F760F570F5083DC01FB
:10044000A854BE4F50816C91560F505350835A811F
:100450005F5F5A83F901E059FA4F6A815091B50103
:100460002B5F3F4F0F96651708F467CF8091B60159
:10047000E82FF0E09091A901E954FE4F90838F5F3F
:100480008093B6010F900F90CF91DF91FF91EF9184
:10049000BF91AF919F918F917F916F915F914F919C
:1004A0003F912F910F900BBE0F900FBE0F901F909A
:1004B0001895DF93CF930F92CDB7DEB78091A90146
:1004C00089831092A901F8941092A80178948981E7
:1004D0000F90CF91DF91089590919B0095FFFCCFF5
:1004E00080939C00089594EA9093740020E030E09B
:1004F0000BC0E0E7F1E03197F1F700C02F5F3F4F0D
:10050000F1E0253F3F0721F09091740097FFF1CF74
:100510009EE09093730094E89093740020E030E0A4
:100520000BC0E0E7F1E03197F1F700C02F5F3F4FDC
:10053000F1E0253F3F0721F09091740097FFF1CF44
:100540008093730084E88093740080E090E00AC098
:10055000E0E7F1E03197F1F700C00196F1E0853F67
:100560009F0721F02091740027FFF2CF84E9809348
:1005700074000895EF92FF920F931F93DF93CF9330
:1005800000D0CDB7DEB7082F162F843070F5643158
:1005900060F58BE149835A830E9473028CE40E94C8
:1005A0007302812F0E947302802F0E94730280E7E2
:1005B00091E00197F1F700C0E12EFF2449815A81B3
:1005C000042F152F06C00E94730294EC9A95F1F740
:1005D00000C0E4E1EE16F10444F4F80181918F01CA
:1005E0000894E11CF11C882371F70F900F90CF91B4
:1005F000DF911F910F91FF90EF9008951F93DF936C
:10060000CF9300D0CDB7DEB7182F8430F0F464312B
:10061000E0F48BE12A8369830E9473028CE40E94D8
:1006200073026981862F0E947302812F0E947302D8
:1006300080E791E00197F1F700C02A81822F0E94A4
:10064000730294EC9A95F1F700C00F900F90CF9140
:10065000DF911F9108958BE10E94730283E40E9451
:10066000730286E696EEA0E081509040A040E1F74C
:100670000895EF92FF920F931F93182FF62EE42EFA
:10068000842F64E60E946743082F282F30E0205D06
:100690003F4F442737FD4095542F812F6F2D0E94E7
:1006A000FE028CE9089F002D11240E0D802F6AE0B8
:1006B0000E946743E82E6F2D6F5F282F30E0205D8A
:1006C0003F4F442737FD4095542F812F0E94FE0253
:1006D0006F2D6E5F26EFE29E202D1124200F30E05B
:1006E000205D3F4F442737FD4095542F812F0E94B6
:1006F000FE021F910F91FF90EF900895EF92FF92ED
:100700000F931F93CF93DF93EC018230910561F03B
:100710008930910561F08330910561F08830910551
:1007200061F42EE630E00BC02AEA30E008C027E88A
:1007300030E005C024E630E002C020E030E085E093
:1007400090E062ED70E0AE010F2EFBEDEF2EF6EBC8
:10075000FF2EFDE60F2FFFE31F2FF02D0E941B172A
:10076000C430D10531F0C730D105B1F422ED30E00D
:1007700002C020EA30E080E090E060E070E0AE018E
:100780000F2EF0E0EF2EF0E0FF2EF0E00F2FF0E064
:100790001F2FF02D0E941B17DF91CF911F910F91FA
:1007A000FF90EF900895EF92FF920F931F93AC018B
:1007B0008230910579F08930910579F08430910586
:1007C00079F08730910579F08530910579F428E743
:1007D00030E00EC02AEA30E00BC027E830E008C065
:1007E0002BE430E005C02FE530E002C026E930E020
:1007F00080E090E060E070E00F2EF0E0EF2EF0E09F
:10080000FF2EF0E00F2FF0E01F2FF02D0E941B179E
:100810001F910F91FF90EF900895EF92FF920F9329
:100820001F93AC018230910569F08930910569F020
:100830008430910569F08730910569F08530910524
:1008400069F403C022E830E00BC023E730E008C0C1
:1008500024EB30E005C028EC30E002C021E930E0B4
:1008600080E090E060E070E00F2EF0E0EF2EF0E02E
:10087000FF2EF0E00F2FF0E01F2FF02D0E941B172E
:100880001F910F91FF90EF900895EF92FF920F93B9
:100890001F93CF93DF937C01EB018A0182E390E009
:1008A0000E94320F1092BC051092BB051092A20557
:1008B0001092A105C701BE0140E050E02EE531E0F5
:1008C0000E943E1682E390E09093BC058093BB05A6
:1008D0009093A2058093A105802F912F97FF03C0CD
:1008E000909581959F4F23E0843892071CF02AEA67
:1008F00030E002C028E730E080E090E060E070E0A7
:10090000A8010E943E160E940C0BDF91CF911F910F
:100910000F91FF90EF900895AF92BF92CF92DF9228
:10092000EF92FF920F931F93AC017B016230710530
:1009300029F007E810E0E7E9FFEF04C00AEA10E059
:10094000E4E7FFEF88EB9BE060E070E097016F0168
:10095000AA24BB240E941F2B1F910F91FF90EF90A0
:10096000DF90CF90BF90AF900895AF92BF92CF929B
:10097000DF92EF92FF920F931F93CF93DF930E942A
:100980008D002091A1023091A202121613060CF0E4
:1009900076C081E090E060E070E00E945539C1E0EF
:1009A000D0E003EA12E0F4E1EF2EF1E0FF2EE9E1FE
:1009B000CE2EE1E0DE2E70E0A72E71E0B72E809102
:1009C000B50190E08C179D0794F1FE01EE0FFF1F1B
:1009D000EE0FFF1FEC0FFD1FE35DFA4F40813281E8
:1009E0002181948183816DB77EB76E5070400FB6C0
:1009F000F8947EBF0FBE6DBFEDB7FEB73196ADB7B1
:100A0000BEB712961C930E931197B382A2824483B1
:100A100015823683178220871186928713868487F2
:100A200015860E94313DEDB7FEB73E9615C000D049
:100A300000D000D0EDB7FEB73196ADB7BEB7129675
:100A40001C930E931197F382E282D582C4820E9496
:100A5000313DEDB7FEB736960FB6F894FEBF0FBE28
:100A6000EDBF9E012150822F60E043EA52E00E94D8
:100A7000BA022196C530D10509F0A1CF6FC1C3EAF2
:100A8000D2E02115310509F499C06091B505709146
:100A9000B6058091B7059091B80500D000D000D080
:100AA0000DB71EB70F5F1F4FADB7BEB71296DC93E1
:100AB000CE9311972BE131E0F801338322830E941A
:100AC000973ED80115967C936E9314970E94313D02
:100AD000EDB7FEB736960FB6F894FEBF0FBEEDBF6A
:100AE00080E060E0AE010E94BA0260916105709101
:100AF0006205809163059091640500D000D000D01C
:100B00000DB71EB70F5F1F4FADB7BEB71296DC9380
:100B1000CE93119724E231E0F801338322830E94BF
:100B2000973ED80115967C936E9314970E94313DA1
:100B3000EDB7FEB736960FB6F894FEBF0FBEEDBF09
:100B400081E060E0AE010E94BA026091A30570915D
:100B5000A4058091A5059091A60500D000D000D0F5
:100B60000DB71EB70F5F1F4FADB7BEB71296DC9320
:100B7000CE9311972DE231E0F801338322830E9456
:100B8000973ECB019B01220F331F43E0880F991F33
:100B90004A95E1F7280F391FD80115963C932E93FB
:100BA00014970E94313DEDB7FEB736960FB6F89414
:100BB000FEBF0FBEEDBF82E060E0CDC0082F10E0A9
:100BC0002091AB019091AC018091AD014DB75EB722
:100BD0004A5050400FB6F8945EBF0FBE4DBFEDB700
:100BE000FEB73196ADB7BEB71296DC93CE93119790
:100BF00036E3E32E31E0F32EF382E2822483158282
:100C000096831782808711860E94313DEDB7FEB72B
:100C10003A960FB6F894FEBF0FBEEDBF80E060E0DD
:100C2000AE010E94BA022091AE019091AF01809175
:100C3000B0014DB75EB74A5050400FB6F8945EBF52
:100C40000FBE4DBFEDB7FEB73196ADB7BEB712962A
:100C5000DC93CE931197F382E282248315829683EC
:100C60001782808711860E94313DEDB7FEB73A9614
:100C70000FB6F894FEBF0FBEEDBF81E060E0AE019D
:100C80000E94BA022091B1019091B2018091B3010A
:100C90004DB75EB74A5050400FB6F8945EBF0FBED6
:100CA0004DBFEDB7FEB73196ADB7BEB71296DC9328
:100CB000CE931197F382E282248315829683178262
:100CC000808711860E94313DEDB7FEB73A960FB688
:100CD000F894FEBF0FBEEDBF82E060E0AE010E945F
:100CE000BA022DB73EB72E5030400FB6F8943EBF33
:100CF0000FBE2DBFEDB7FEB73196ADB7BEB712969A
:100D0000DC93CE93119782E491E093838283C801B0
:100D10008170907095838483C801827090709783EE
:100D20008683C8018470907091878087C80188701D
:100D300090709387828700711070158704870E94D6
:100D4000313DEDB7FEB73E960FB6F894FEBF0FBE2D
:100D5000EDBF83E067E0AE010E94BA02DF91CF9160
:100D60001F910F91FF90EF90DF90CF90BF90AF90C9
:100D70000895CF93DF9300D000D000D0EDB7FEB739
:100D80003196C3EAD2E0ADB7BEB71296DC93CE93EC
:100D9000119721E531E033832283958384830E9478
:100DA000313D8DB79EB706960FB6F8949EBF0FBE25
:100DB0008DBF83E06FE0AE010E94BA02DF91CF9158
:100DC00008958091A1029091A2028130910509F4C9
:100DD00044C08230910509F468C08330910509F45C
:100DE00092C08430910509F4BCC08530910509F4A6
:100DF000E6C08630910509F410C18730910509F4E9
:100E00003AC18830910509F464C18930910509F42B
:100E10008EC18A30910509F4B8C12FEF8F3F920738
:100E200009F4E4C1AFEF8E3F9A0709F4FAC1BFEFAE
:100E30008D3F9B0709F416C22FEF8C3F920709F4F0
:100E400032C2AFEF8B3F9A0709F44EC2BFEF8A3F21
:100E50009B0709F46AC2009741F101969093A202A0
:100E60008093A1020E94B9068091A1029091A202F2
:100E70000097D9F00E940C0BC39A8FEF9FE7A4E074
:100E800081509040A040E1F700C00000C39810924C
:100E90004402109243020E94BA008823E1F381E0E9
:100EA00090E090934402809343028091A10290913C
:100EB000A202009741F101969093A2028093A102B1
:100EC0000E94B9068091A1029091A2020097D9F0E8
:100ED0000E940C0BC39A8FEF9FE7A4E081509040D3
:100EE000A040E1F700C00000C398109244021092A5
:100EF00043020E94BA008823E1F381E090E09093DE
:100F00004402809343028091A1029091A202009733
:100F100041F101969093A2028093A1020E94B9062A
:100F20008091A1029091A2020097D9F00E940C0B2F
:100F3000C39A8FEF9FE7A4E081509040A040E1F773
:100F400000C00000C39810924402109243020E9415
:100F5000BA008823E1F381E090E09093440280930B
:100F600043028091A1029091A202009741F1019663
:100F70009093A2028093A1020E94B9068091A102DF
:100F80009091A2020097D9F00E940C0BC39A8FEFA8
:100F90009FE7A4E081509040A040E1F700C000002E
:100FA000C39810924402109243020E94BA00882310
:100FB000E1F381E090E090934402809343028091BA
:100FC000A1029091A202009741F101969093A20292
:100FD0008093A1020E94B9068091A1029091A20281
:100FE0000097D9F00E940C0BC39A8FEF9FE7A4E003
:100FF00081509040A040E1F700C00000C3981092DB
:101000004402109243020E94BA008823E1F381E077
:1010100090E090934402809343028091A1029091CA
:10102000A202009741F101969093A2028093A1023F
:101030000E94B9068091A1029091A2020097D9F076
:101040000E940C0BC39A8FEF9FE7A4E08150904061
:10105000A040E1F700C00000C39810924402109233
:1010600043020E94BA008823E1F381E090E090936C
:101070004402809343028091A1029091A2020097C2
:1010800041F101969093A2028093A1020E94B906B9
:101090008091A1029091A2020097D9F00E940C0BBE
:1010A000C39A8FEF9FE7A4E081509040A040E1F702
:1010B00000C00000C39810924402109243020E94A4
:1010C000BA008823E1F381E090E09093440280939A
:1010D00043028091A1029091A202009741F10196F2
:1010E0009093A2028093A1020E94B9068091A1026E
:1010F0009091A2020097D9F00E940C0BC39A8FEF37
:101100009FE7A4E081509040A040E1F700C00000BC
:10111000C39810924402109243020E94BA0088239E
:10112000E1F381E090E09093440280934302809148
:10113000A1029091A202009741F101969093A20220
:101140008093A1020E94B9068091A1029091A2020F
:101150000097D9F00E940C0BC39A8FEF9FE7A4E091
:1011600081509040A040E1F700C00000C398109269
:101170004402109243020E94BA008823E1F381E006
:1011800090E090934402809343028091A102909159
:10119000A202009709F4EAC001969093A2028093FC
:1011A000A1020E94B9068091A1029091A20200972B
:1011B00009F4DCC00E940C0BC39A8FEF9FE7A4E0F8
:1011C00081509040A040E1F700C00000C398109209
:1011D0004402109243020E94BA008823E1F381E0A6
:1011E00090E0909344028093430208950E940C0B78
:1011F000C39A8FEF9FE7A4E081509040A040E1F7B1
:1012000000C00000C39810924402109243020E9452
:10121000BA008823E1F381E090E090934402809348
:1012200043028091A1029091A2020097D9F00E94FE
:101230000C0BC39A8FEF9FE7A4E081509040A04031
:10124000E1F700C00000C3981092440210924302DC
:101250000E94BA008823E1F381E090E09093440279
:10126000809343028091A1029091A2020097D9F04D
:101270000E940C0BC39A8FEF9FE7A4E0815090402F
:10128000A040E1F700C00000C39810924402109201
:1012900043020E94BA008823E1F381E090E090933A
:1012A0004402809343028091A1029091A202009790
:1012B000D9F00E940C0BC39A8FEF9FE7A4E08150F6
:1012C0009040A040E1F700C00000C3981092440293
:1012D000109243020E94BA008823E1F381E090E07B
:1012E00090934402809343028091A1029091A202C4
:1012F0000097D9F00E940C0BC39A8FEF9FE7A4E0F0
:1013000081509040A040E1F700C00000C3981092C7
:101310004402109243020E94BA008823E1F381E064
:1013200090E090934402809343028091A1029091B7
:10133000A2020097D9F00E940C0BC39A8FEF9FE78F
:10134000A4E081509040A040E1F700C00000C398A5
:1013500010924402109243020E94BA008823E1F3E3
:1013600081E090E090934402809343020895CF93EC
:10137000DF930E943A010E94890C0E940C0B0E948C
:10138000703C82E10E946C021092B5012BE635E0C0
:10139000C2E3D0E0C90160E070E042E350E00E94A7
:1013A0002A3D8FEF9FE7ADE081509040A040E1F7EC
:1013B00000C00000D093BC05C093BB05D093A2052C
:1013C000C093A10580E090E0A0EAB0E48093A70577
:1013D0009093A805A093A905B093AA0580936505ED
:1013E00090936605A0936705B093680580E090E050
:1013F000A0E8BFE38093AD059093AE05A093AF0541
:10140000B093B00580E090E0A0E0BFE380932905B1
:1014100090932A05A0932B05B0932C051092BA0542
:101420001092B90584EB90E09093600580935F057E
:1014300010926A051092690580EF90E09093AC05D8
:101440008093AB0582E390E00E94320F0E94C30FAD
:101450001092A2021092A102C1E0D0E010924402C8
:10146000109243020E94BA00803221F1813218F4B6
:101470008031A1F705C0803419F1803879F72CC08C
:10148000D0934402C093430288B3887F88BB0E94F4
:10149000E1060E940C0BC39A8FEF9FEFA8E08150EA
:1014A0009040A040E1F700C00000C39888B3876077
:1014B00088BBD4CF8091A1029091A202019605C071
:1014C0008091A1029091A20201979093A202809331
:1014D000A1020E94B906C2CF0E940C0B02C00E945A
:1014E000B50486B390E080959095807F90700097CA
:1014F000B1F70E942B03B2CF90E0FC01B096FE2F13
:10150000EE2720812093C20220FDFBCF8896B82FC2
:10151000AA278C9190819093C20290FDFBCF0895F1
:1015200090E08096F82FEE2780818093C20280FDA4
:10153000FBCF608380818093C20280FDFBCF089542
:1015400080E061E00E94900A82E061E00E94900ADF
:1015500081E061E00E94900A089580E061E00E94CD
:10156000900A82E061E00E94900A81E061E00E94BE
:10157000900A0895A82FB0E0FD01B096FE2FEE2747
:1015800080818093C20280FDFBCF9896BA2FAA2754
:10159000872F992787FD9A958C9380818093C2022B
:1015A00080FDFBCF6C9380818093C20280FDFBCFD6
:1015B00008951F93CF93DF93182F80E06FE10E946F
:1015C000900AC1E0D0E002C0CC0FDD1F1A95E2F70F
:1015D00080E0BE010E94BA0A81E06FE10E94900A99
:1015E00081E0BE010E94BA0A82E06FE10E94900A87
:1015F00082E0BE010E94BA0A80E061E00E94900A87
:1016000082E061E00E94900A81E061E00E94900A1D
:10161000DF91CF911F910895EF92FF920F931F9347
:10162000CF93DF93C0E0D0E00F2EF0E0EF2EF0E09C
:10163000FF2EF0E00F2FF0E01F2FF02D9E01220F64
:10164000331F220F331FF901EF58FD4FE082F18263
:101650000283138380819181A281B3812B593D4FF5
:10166000F90180839183A283B3838C2F6FE10E9461
:10167000900A8C2F60E074E00E94BA0A2196C33071
:10168000D105E1F60E94AD0AC0E0D0E00F2EF0E0F7
:10169000EF2EF0E0FF2EF0E00F2FF0E01F2FF02DE7
:1016A0009E01220F331F220F331FF901EF58FD4F08
:1016B000E082F1820283138380819181A281B381D0
:1016C0002B593D4FF90180839183A283B3838C2FE3
:1016D0006FE10E94900A8C2F60E071E00E94BA0ACC
:1016E0002196C330D105E1F60E94AD0ADF91CF917A
:1016F0001F910F91FF90EF900895DF92EF92FF926C
:101700000F931F93D82E7A018B019801552737FD2F
:101710005095452FB9010E94BA0A8D2DB7010E943C
:10172000BA0A1F910F91FF90EF90DF9008951F93D9
:10173000182F60E00E94900A8CEC9CE10197F1F771
:1017400000C00000812F6DE10E94900A812F60E0AF
:1017500070E00E94BA0A1F910895AF92BF92CF9293
:10176000DF92EF92FF920F931F93CF93DF93F82EA8
:101770006B01EA018901AA24A3946115710509F49A
:10178000AA24BB24B394209709F4BB24EE24E39449
:101790000115110509F4EE248F2D6EE10E94900AC7
:1017A0006B2D70E0660F771F660F771F8A2D90E014
:1017B000F3E0880F991FFA95E1F7682B792B8E2DAE
:1017C00090E0880F991F682B792B8F2D0E94BA0A01
:1017D000AA2021F08F2DB6010E94BA0ABB2021F069
:1017E0008F2DBE010E94BA0AEE2021F08F2DB80184
:1017F0000E94BA0A8F2D64E00E94900ADF91CF9177
:101800001F910F91FF90EF90DF90CF90BF90AF901E
:1018100008958F929F92AF92BF92CF92DF92EF92F4
:10182000FF920F931F93CF93DF93F82E4B016A0122
:10183000E901AA24A3946115710509F4AA24BB2423
:10184000B394C114D10409F4BB24EE24E39420978B
:1018500009F4EE248F2D6EE10E94900A6A2D70E04B
:1018600033E0660F771F3A95E1F761608B2D90E0CA
:10187000880F991F880F991F682B792B8E2D90E068
:10188000880F991F682B792B8F2D0E94BA0AAA20E6
:1018900021F08F2DB4010E94BA0ABB2021F08F2DB8
:1018A000B6010E94BA0AEE2021F08F2DBE010E94DF
:1018B000BA0A8F2DB8010E94BA0A8F2D64E00E94E7
:1018C000900ADF91CF911F910F91FF90EF90DF90E1
:1018D000CF90BF90AF909F908F900895DF92EF923E
:1018E000FF920F931F93D82E7A018B016FE10E9414
:1018F000900A8D2D60E270E00E94BA0A8D2DB80129
:10190000A7010E947D0B1F910F91FF90EF90DF9038
:10191000089580E06FE070E040E050E020E030E0CB
:101920000E94AD0B81E06FE070E040E050E020E00D
:1019300030E00E94AD0B82E06FE070E040E050E0EC
:1019400020E030E00E94AD0B80E04FEF5FEF6FEFE3
:101950007FE30E946E0C81E04FEF5FEF6FEF7FE35C
:101960000E946E0C82E04FEF5FEF6FEF7FE30E940B
:101970006E0C0895DF92EF92FF920F931F93DF9307
:10198000CF930F92CDB7DEB7D82E7A018B0177FFB8
:101990000AC010950095F094E094E11CF11C011D23
:1019A000111D90E001C091E08D2D6FE199830E949F
:1019B000900A9981792F7295707F60E068607860F5
:1019C0008D2D0E94BA0A8D2DB801A7010E947D0BB2
:1019D0000F90CF91DF911F910F91FF90EF90DF90CB
:1019E0000895AF92BF92CF92DF92EF92FF920F9342
:1019F0001F93DF93CF93CDB7DEB72C970FB6F89434
:101A0000DEBF0FBECDBF59016A010E94CA3E698385
:101A10007A838B839C83C601B5010E94CA3E6D8385
:101A20007E838F839887C801B7010E94CA3E698769
:101A30007A878B879C878E010F5F1F4FEE24F801FA
:101A4000608171818281938121E73CEA4BE85EE30A
:101A50000E94E33F9B01AC01F80121933193419334
:101A600051938F0120E030E040E857E40E94E33FCB
:101A70000E94973EAB01BC018E2D0E94BA0CE394EC
:101A8000FE2DF330E1F60E94A00A2C960FB6F894D2
:101A9000DEBF0FBECDBFCF91DF911F910F91FF90A1
:101AA000EF90DF90CF90BF90AF9008952F923F922C
:101AB0004F925F926F927F928F929F92AF92BF925E
:101AC000CF92DF92EF92FF920F931F93DF93CF930A
:101AD000CDB7DEB72C970FB6F894DEBF0FBECDBFE3
:101AE0002B013C0159016A01CA01B90120E030E033
:101AF00043EA53E40E94E33F962E872E382E292E88
:101B0000C801B70120E030E242EB54E40E94E33F19
:101B1000162FE72E082FF92EC301B20120E030E482
:101B20004DE054E40E94E33FD401F1012B2F3A2F02
:101B30004F2F5E2F0E94613D212F3E2D402F5F2DA4
:101B40000E94613D69837A838B839C83C601B501C2
:101B500020E030E043E254E40E94E33F212F3E2D99
:101B6000402F5F2D0E94613D6D837E838F83988718
:101B7000C301B20120E030E44DE054EC0E94E33FA9
:101B8000D401F1012B2F3A2F4F2F5E2F0E94613D80
:101B9000212F3E2D402F5F2D0E94613D69877A875E
:101BA0008B879C877E010894E11CF11C00E010E00B
:101BB000F70161917191819191917F012AE939E950
:101BC00041ED50E40E94E33F0E94973EAB01BC010F
:101BD000802F0E94BA0C0F5F1F4F0330110541F791
:101BE0000E94AD0A2C960FB6F894DEBF0FBECDBF93
:101BF000CF91DF911F910F91FF90EF90DF90CF90E9
:101C0000BF90AF909F908F907F906F905F904F901C
:101C10003F902F9008954F925F926F927F928F9294
:101C20009F92AF92BF92CF92DF92EF92FF920F936B
:101C30001F93982E862E29013A016FE10E94900A87
:101C4000682D70E06A62892D0E94BA0A892DB3015D
:101C5000A2010E947D0B892DB801A7010E947D0B76
:101C6000892DB601A5010E947D0B1F910F91FF9058
:101C7000EF90DF90CF90BF90AF909F908F907F902C
:101C80006F905F904F9008959F92AF92BF92CF92C6
:101C9000DF92EF92FF920F931F93DF93CF9300D0C9
:101CA0000F92CDB7DEB71ABA15BA8FEF84BB109278
:101CB000650083E08093640050E8A52E44E8B42ECC
:101CC0006E010894C11CD11C85B3856085BB83E37C
:101CD0009BE20197F1F785B38A7F85BBACECBCE151
:101CE0001197F1F700C00000809165008D7F80930F
:101CF0006500AB9885B3887F85BB99B39983A89A13
:101D000019B385B3887F826085BB09B3943C09F41D
:101D10009FC0943809F49CC015BA80E060E047E5A4
:101D200051E00E94BA0281E060E04DE551E00E947E
:101D3000BA02143C09F48CC0143809F489C015BAED
:101D400080E060E047E551E00E94BA0282E060E096
:101D50004DE651E00E94BA02043C09F479C004380F
:101D600009F476C015BA80E060E047E551E00E94D2
:101D7000BA0283E060E04DE751E029C09E2C9C1838
:101D8000892D6DE10E94900A892D60E070E00E942B
:101D9000BA0AF8018081D7018D937D0100501F4F51
:101DA000B3E200301B0751F78981803C99F08038FD
:101DB00089F085B78F7385BF15BA80E060E04DE884
:101DC00051E00E94BA0281E060E04DE551E00E94DE
:101DD000BA027ACFC39A2FEF3FE74DE0215030404F
:101DE0004040E1F700C00000C39880E060E043E9B4
:101DF00051E00E94BA0280E098B3976098BB2FEF41
:101E00003FEB46E0215030404040E1F700C0000089
:101E100098B3987F98BB2FEF3FEB46E021503040BE
:101E20004040E1F700C000008F5F833029F70E9437
:101E30002B030F900F900F90CF91DF911F910F9177
:101E4000FF90EF90DF90CF90BF90AF909F9008955C
:101E5000A5BE82E080936D00B0926C00760100E038
:101E600010E28CCF0F931F93CF93DF9390932805AD
:101E70008093270560E070E003E310E020E030E0AD
:101E8000A90116C0FE01EA0FFB1FEE0FFF1FEE0FA8
:101E9000FF1FED53FD4F20833183428353831196FF
:101EA000A817B9077CF36F5F7F4F6330710551F05E
:101EB000A0E0B0E0609FE001619FD00D709FD00D69
:101EC0001124EECFDF91CF911F910F910895AC01B6
:101ED000440F551FFA01ED5AFD4FA081B1814B5BB4
:101EE0005D4FFA01208131812115310529F421E06E
:101EF00030E06115710511F420E030E0880F991F82
:101F0000FC01ED5AFD4F2A0F3B1F318320838B5B71
:101F10009D4FFC01718360830895CF92DF92EF9211
:101F2000FF920F931F93CF93DF938C01EA018617E3
:101F30009707E4F4CA01861B970BBC01882777FD3D
:101F40008095982F0E94CA3E6B017C01C01BD10B6B
:101F5000BE01882777FD8095982F0E94CA3E9B017D
:101F6000AC01C701B6010E942F3E04C060E070E0E2
:101F700080E89FE3DF91CF911F910F91FF90EF9049
:101F8000DF90CF90089580E062E00E94900A81E0A7
:101F900062E00E94900A82E062E00E94900A80E083
:101FA00090E0DC018093B1059093B205A093B30556
:101FB000B093B4058091B1059091B205A091B3059D
:101FC000B091B40580939D0590939E05A0939F05C5
:101FD000B093A00580919D0590919E05A0919F05CD
:101FE000B091A0058093A3059093A405A093A505A7
:101FF000B093A6058091A3059091A405A091A50595
:10200000B091A6058093610590936205A093630546
:10201000B09364058091610590916205A09163057C
:10202000B09164058093B5059093B605A093B7056C
:10203000B093B80508952F923F924F925F926F929E
:102040007F928F929F92AF92BF92CF92DF92EF9248
:10205000FF920F931F93DF93CF93CDB7DEB76597B2
:102060000FB6F894DEBF0FBECDBFFE0131968CE0F7
:10207000DF011D928A95E9F74F01C12CB8E2DB2EF2
:10208000AA24BB248A2D6AE00E94900A412CA8EF62
:102090005A2E4C0C5D1CF40180819181A281B38188
:1020A00020E030E0A901F201608160FDFCCFF60183
:1020B000E080FF2400E010E08E299F29A02BB12BA7
:1020C000233031054105510521F0BA2FA92F982F52
:1020D00088272F5F3F4F4F4F5F4F24303105410519
:1020E000510509F7F40181939193A193B1934F01A5
:1020F0000894A11CB11C80E091E0C80ED91E93E0A9
:10210000A916B10409F0BECFA980BA80CB80DC80CB
:10211000E984FA840B851C85C601B5016E197F0917
:10212000800B910B0E94CA3E20E030E040E05FE36C
:102130000E94E33F26E636E645E253E40E942F3E46
:102140006D877E878F87988B6D817E818F81988543
:10215000EA0CFB1C0C1D1D1DE60EF71E081F191FA7
:102160000E94CA3E5B016C01C801B7010E94CA3ED1
:1021700020E030E040E450E40E942F3E9B01AC019F
:10218000C601B5010E94613D2AE939E14FE353E4FC
:102190000E942F3E698B7A8B8B8B9C8B66277727CF
:1021A000CB016E197F09800B910B0E94CA3E20E083
:1021B00030E040E450E40E942F3E20E030E84FEC55
:1021C00053E40E942F3E9B01AC012093A305309362
:1021D000A4054093A5055093A60520919D05309137
:1021E0009E0540919F055091A0056D857E858F8548
:1021F00098890E94613DA62EC72E7C012091B105D1
:102200003091B2054091B3055091B40569897A893E
:102210008B899C890E94613D862E172F082FD92E0D
:102220002A2D3C2D4E2D5F2D0E94D53D2B013C01CA
:102230006091A3057091A4058091A5059091A605D4
:102240002BED3FE049E450E40E94E33F20E030E022
:1022500044E353E40E942F3E9B01AC01C301B20151
:102260000E94623D962E372E282E9D8B6A2D7C2D46
:102270008E2D9F2D2A2D3C2D4E2D5F2D0E94E33F4C
:102280002B013C01682D712F802F9D2D282D312F82
:10229000402F5D2D0E94E33F9B01AC01C301B201C1
:1022A0000E94623D0E9450407B018C01A090B505C8
:1022B000B090B605C090B705D090B8052D89692DAE
:1022C000732D822D922F0E942C3E9B01AC01C801E0
:1022D000B7010E94E33F9B01AC01C601B5010E941A
:1022E000623D9B01AC012093B5053093B605409348
:1022F000B7055093B805A0906105B0906205C090F5
:102300006305D09064052D89692D732D822D922F40
:102310000E9446409B01AC01C801B7010E94E33F07
:102320009B01AC01C601B5010E94623D9B01AC015D
:1023300020936105309362054093630550936405D3
:102340008D859E85AF85B88980939D0590939E0568
:10235000A0939F05B093A00589899A89AB89BC8910
:102360008093B1059093B205A093B305B093B405E3
:1023700065960FB6F894DEBF0FBECDBFCF91DF914B
:102380001F910F91FF90EF90DF90CF90BF90AF9093
:102390009F908F907F906F905F904F903F902F9085
:1023A00008952F923F924F925F926F927F928F92F9
:1023B0009F92AF92BF92CF92DF92EF92FF920F93D4
:1023C0001F93DF93CF93CDB7DEB762970FB6F89424
:1023D000DEBF0FBECDBF7B018A013E872D879C01EA
:1023E000B901882777FD8095982F0E94CA3E69839E
:1023F0007A838B839C83B701882777FD8095982FFC
:102400000E94CA3E6D837E838F839887B801882798
:1024100077FD8095982F0E94CA3E20E030E040E290
:1024200051E40E942F3E69877A878B879C871E0123
:102430000894211C311C3DE0432E512C4C0E5D1E96
:102440008101BB24AA2420E8922E9FE3892EF80163
:1024500081919191A191B1918F016C017D01E894DD
:10246000F7F8C701B601F501A92DB82D2F2F3A2D88
:10247000AD010E94D83F181624F4BC2CAD2C9E2C24
:102480008F2C0415150519F700E010E08D859E8549
:10249000AA2797FDA095BA2F8F87988BA98BBA8B07
:1024A0007801EE0CFF1CEE0CFF1CF701EF58FD4FFE
:1024B00080819181A281B381F701EB59FD4F808327
:1024C0009183A283B3836F85788989899A890E94D1
:1024D000CA3E2B013C01D1012D913D914D915D9161
:1024E0001D010E94E33FF501A92DB82D2F2F3A2D94
:1024F000AD010E942F3E9B01AC01F701E358FD4F57
:1025000020833183428353830F5F1F4F03301105B4
:1025100039F6ED85FE851E161F065CF5A5019401B2
:10252000652F7A2D832F922F20E030E048EC52E483
:102530000E94E33FA30192010E942F3E7B018C0188
:102540006091BB057091BC05882777FD8095982F19
:102550000E94CA3E9B01AC01C801B7010E94623DC6
:1025600020E030E040E05FE30E94623D0E94973E41
:1025700002C060E070E07093BE056093BD05629696
:102580000FB6F894DEBF0FBECDBFCF91DF911F9184
:102590000F91FF90EF90DF90CF90BF90AF909F9002
:1025A0008F907F906F905F904F903F902F90089505
:1025B0002F923F924F925F926F927F928F929F9253
:1025C000AF92BF92CF92DF92EF92FF920F931F9341
:1025D000DF93CF93CDB7DEB7A6970FB6F894DEBFE3
:1025E0000FBECDBF3C01FE0131968CE0DF011D9294
:1025F0008A95E9F780912705909128059C01215043
:1026000030403A8B298B4091BB055091BC055E87C9
:102610004D874091BD055091BE052091A105309197
:10262000A205BA01621B730B788B6F874619570995
:102630004F0100E010E06301EE24D7FCE094FE2C93
:10264000CB8ADC8AED8AFE8ACD84DE84EE24D7FC38
:10265000E094FE2CCF8AD88EE98EFA8E6A01EE24A1
:10266000D7FCE094FE2CCB8EDC8EED8EFE8EA90185
:10267000662757FD6095762F4F8F58A369A37AA3DD
:102680006C01EE24D7FCE094FE2CCBA2DCA2EDA2E0
:10269000FEA2E989FA8933E3E32EF12C0E9D600155
:1026A0000F9DD00C1E9DD00C11242EC0D4016D9115
:1026B0007D918D919C917F010894E108F108D601EC
:1026C000AE0DBF1DAA0FBB1FAA0FBB1FAD53BD4F41
:1026D0002D913D914D915C91EC0DFD1DEE0FFF1F75
:1026E000EE0FFF1FED53FD4F208331834283538351
:1026F00020813181428153810E94623DF4016083D7
:10270000718382839383F7011E161F067CF2780182
:10271000EE0CFF1CEE0CFF1C970123583D4FF901F6
:1027200080819181A281B3814CECC42ED12C0C9D6F
:10273000F0010D9DF00D1C9DF00D1124ED53FD4F8A
:1027400080839183A283B3834D855E8541155105B6
:1027500019F56F85788966167706F4F4D9016D91BD
:102760007D918D919C91F401208131814281538131
:102770000E94623D5B016C016BA17CA18DA19EA1B9
:102780000E94CA3E9B01AC01C601B5010E942F3ECA
:102790009B01AC01F70178C0CF84D888C614D70458
:1027A00034F5F801EE0FFF1FEE0FFF1FE358FD4F4A
:1027B000C080D180E280F3806B8D7C8D8D8D9E8D6D
:1027C0000E94CA3E9B01AC01C701B6010E94E33FD3
:1027D0006B017C016F8D78A189A19AA10E94CA3EEC
:1027E0009B01AC01C701B6010E942F3E44C0F80115
:1027F000EE0FFF1FEE0FFF1FED84FE84E614F704BB
:102800003CF4E358FD4F208131814281538137C030
:10281000DF01A358BD4F6D917D918D919C91EB5936
:10282000FD4F20813181428153812080318042805F
:1028300053800E94613D6B017C016B897C898D898D
:102840009E890E94CA3E9B01AC01C701B6010E944D
:10285000E33F6B017C016F89788D898D9A8D0E9491
:10286000CA3E9B01AC01C701B6010E942F3EA201E6
:1028700091010E94623D262F372F482F592FF801D2
:10288000EE0FFF1FEE0FFF1FEF58FD4F2083318328
:10289000428353830F5F1F4F24E030E0820E931E6C
:1028A0000330110509F0F5CEA6960FB6F894DEBFF9
:1028B0000FBECDBFCF91DF911F910F91FF90EF9091
:1028C000DF90CF90BF90AF909F908F907F906F9050
:1028D0005F904F903F902F900895CF93DF93EC013E
:1028E0000E948D0090E09C012171307021313105F2
:1028F00009F1209721F080FD20C084FD21C08130A6
:10290000910509F18330910509F18230910509F1B2
:102910008630910509F18C30910509F188309105D7
:1029200009F18831910509F18031910509F52CEF04
:102930003FEF20C02BE030E01DC02CE030E01AC09B
:102940002DE030E017C024E030E014C023E030E098
:1029500011C022E030E00EC021E030E00BC02FEFCC
:102960003FEF08C02EEF3FEF05C02DEF3FEF02C055
:1029700020E030E0C901DF91CF9108952F923F927E
:102980004F925F926F927F928F929F92AF92BF927F
:10299000CF92DF92EF92FF920F931F93DF93CF932B
:1029A000CDB7DEB72A970FB6F894DEBF0FBECDBF06
:1029B0009A8389830E948D00C82EDD248091B10501
:1029C0009091B205A091B305B091B4058B839C831F
:1029D000AD83BE83A981BA81109739F4B8E0CB16D4
:1029E000D1048CF421E030E002C029813A81C11485
:1029F000D10471F48091AD018B3528F48091B2013E
:102A00008B3520F405C02FEF3FEF02C021E030E00E
:102A100059019924882400E8702E1FE3612E552463
:102A20004424B0E83B2EAFE32A2EEE27FF27E21B1B
:102A3000F30BF887EF833A872987A2C00E948D00A5
:102A4000C82EDD2489819A81009751F5A985BA8520
:102A5000AA15BB0529F5C114D10401F56091B10592
:102A60007091B2058091B3059091B4052B813C81A2
:102A70004D815E810E94613D9F7720E030E048EC0F
:102A800052E40E94D83F18164CF4AF80B8849924C1
:102A90008824F0E87F2EEFE36E2E02C0A984BA846A
:102AA0006091B1057091B2058091B3059091B40524
:102AB0002B813C814D815E810E94613D9F7720E0AA
:102AC00030E046E953E40E94D83F18160CF45FC08A
:102AD000A4019301652F782D832F962D20E030E0FF
:102AE00040E85FE30E94623D962E872E782E692E85
:102AF000A4019301652F742F832F922F20E030E0E3
:102B000040E253E40E94283E87FF10C0A4019301D5
:102B1000652F742F832F922F20E030E040E253E4A2
:102B20000E942F3E562E472E382E292EC2FE08C058
:102B30007DEC572E6CEC462E5CE4352E4EE3242EB5
:102B4000E8ECF0E0AE9EB001AF9E700DBE9E700D41
:102B50001124882777FD8095982F0E94CA3ED201C4
:102B6000F1012B2F342D4F2F522D0E94E33F9B015B
:102B7000AC0160E070E0CB017B018C010E94560D3E
:102B8000C2FE5CCF0E940C0B20E030E002C02FEFB1
:102B90003FEFC9012A960FB6F894DEBF0FBECDBF36
:102BA000CF91DF911F910F91FF90EF90DF90CF9029
:102BB000BF90AF909F908F907F906F905F904F905D
:102BC0003F902F9008950F931F93CF93DF938C0125
:102BD0000E948D00C82FD0E0BE016170707081E04E
:102BE00090E00E94670FBE016270707082E090E01A
:102BF0000E94670FBE016470707083E090E00E94D5
:102C0000670FBE016870707084E090E00E94670FEB
:102C1000BE016071707085E090E00E94670F0570E2
:102C2000107001151105F9F080915702909158022A
:102C30002091550230915602820F931F2091590224
:102C400030915A02820F931F20915B0230915C02F7
:102C5000820F931F20915D0230915E02820F931FBD
:102C6000833091051CF420E030E002C02BE030E01E
:102C7000C901DF91CF911F910F910895DF92EF92DB
:102C8000FF920F931F93CF93DF93E090A305F090F3
:102C9000A4050091A5051091A6050E94D11181E01F
:102CA0008093B401C1E0D0E0DD24D39454C0CE01C0
:102CB0000E94D8128091B4018823E1F7D092B40128
:102CC0008091710290917202A0917302B09174028E
:102CD0008093710290937202A0937302B093740276
:102CE00060917102709172028091730290917402EE
:102CF00020917502309176024091770250917802CE
:102D000020937502309376024093770250937802B5
:102D100020917502309176024091770250917802AD
:102D2000E0907902F0907A0200917B0210917C028F
:102D3000E0927902F0927A0200937B0210937C0277
:102D4000E0907902F0907A0200917B0210917C026F
:102D50000E94560D21968091BD059091BE05C81721
:102D6000D9070CF4A4CFDF91CF911F910F91FF9061
:102D7000EF90DF9008954F925F926F927F928F92C3
:102D80009F92AF92BF92CF92DF92EF92FF920F93FA
:102D90001F93CF93DF936C015B01EA012901BA0114
:102DA000882777FD8095982F0E94CA3E2BED3FE043
:102DB00049E450E40E94E33F20E030E041EE54E477
:102DC0000E942F3E7B018C01E89417F9B6018827F9
:102DD00077FD8095982F0E94CA3EA80197010E9416
:102DE000E33F0E94973E3B014C01B501882777FDE8
:102DF0008095982F0E94CA3EA80197010E94E33F48
:102E00000E94973E9B01AC01C301B901AE01920142
:102E10000E943E16DF91CF911F910F91FF90EF908E
:102E2000DF90CF90BF90AF909F908F907F906F90EA
:102E30005F904F9008952F923F924F925F926F92C2
:102E40007F928F929F92AF92BF92CF92DF92EF923A
:102E5000FF920F931F93DF93CF93CDB7DEB76E979B
:102E60000FB6F894DEBF0FBECDBF7E876D87388B5F
:102E70002F87E98AFA8A0B8B1C8B46305105ACF000
:102E80000AE919E929E93EE30D831E832F83388778
:102E900000E010E020E430E409871A872B873C87A4
:102EA00027E030E069E070E014C000E010E020E0CE
:102EB0003FEB0D831E832F83388700E010E020E472
:102EC00030EC09871A872B873C8724E030E062E0EA
:102ED00070E082FF0CC000E010E020E83FE30D83CB
:102EE0001E832F83388725E030E066E070E05524AC
:102EF0004424F0E83F2EEFE32E2E01E010E0DC0149
:102F0000A655BE4FBE8BAD8BFA01E655FE4FF88F2E
:102F1000EF8BCB0186559E4F9A8F898FD901A6558D
:102F2000BE4FBC8FAB8F1E8F0D8F59824A823B8262
:102F30002C82ED8DFE8D3196FE8FED8F01E0E43F0A
:102F4000F0078CF4BF01882777FD8095982F0E94A9
:102F5000CA3E20E030E04AEF53E40E942F3E6983EE
:102F60007A838B839C83AD89BE898C9190E0ED85BB
:102F7000FE858E1B9F0B8A30910534F419821A82CC
:102F8000F0E8FB830FE30C832D853E852115310589
:102F900009F1AD89BE896C9170E0621B730B8827C3
:102FA00077FD8095982F0E94CA3E20E030E040E4F3
:102FB00050E40E94E33FB981AA811B810C812B2F31
:102FC0003A2F412F502F0E94E33FA62EB72EC82E36
:102FD000D92E0AC00F2EF0E0AF2EF0E0BF2EF0E0A9
:102FE000CF2EF0E0DF2EF02DEF89F88D808190E07C
:102FF0000F851889801B910B8A30910534F4198252
:103000001A8210E81B832FE32C838F859889009701
:1030100009F1AF89B88D6C9170E0681B790B882736
:1030200077FD8095982F0E94CA3E29853A854B8569
:103030005C850E94E33FB981AA811B810C812B2F03
:103040003A2F412F502F0E94E33F662E772E882E75
:10305000992E0AC00F2EF0E06F2EF0E07F2EF0E0E8
:103060008F2EF0E09F2EF02D69897A898B899C89BB
:1030700020E030E0A9010E94283E882371F1E98D0B
:10308000FA8D6081AB8DBC8D1C9170E0882777FD37
:103090008095982F0E94CA3E1B012C01612F70E081
:1030A000882777FD8095982F0E94CA3E29893A8902
:1030B0004B895C890E94E33F9B01AC01C201B101D5
:1030C0000E94613D2D813E814F8158850E94E33FE2
:1030D000262E372E482E592E0AC00F2EF0E02F2E06
:1030E000F0E03F2EF0E04F2EF0E05F2EF02DC20119
:1030F000B1019F7720E030E040E251E40E94D83FE8
:10310000181664F40F2EF0E06F2EF0E07F2EF0E042
:103110008F2EF0E09F2EF02D64015301C601B50102
:103120009F7720E030E048EC52E40E94D83F181628
:10313000F4F4C601B50120E030E0A9010E94283E68
:1031400087FF0BC00F2EF0E0AF2EF0E0BF2EF8ECA3
:10315000CF2EF2ECDF2EF02D0AC00F2EF0E0AF2EB6
:10316000F0E0BF2EF8ECCF2EF2E4DF2EF02DC401FC
:10317000B3019F7720E030E048EC52E40E94D83F52
:103180001816F4F4C401B30120E030E0A9010E9454
:10319000283E87FF0BC00F2EF0E06F2EF0E07F2E51
:1031A000F8EC8F2EF2EC9F2EF02D0AC00F2EF0E0DF
:1031B0006F2EF0E07F2EF8EC8F2EF2E49F2EF02D94
:1031C000C601B501A4019301820171010E94560D4F
:1031D00059814A813B812C81652F742F832F922F37
:1031E00020E030E040EA50E40E94E33F162F072F32
:1031F000F82EE92EC601B50120E030E040E450E4AD
:103200000E942F3E9F77D801F7012B2F3A2F4F2F87
:103210005E2F0E94D83F18160CF48BCEC401B30168
:1032200029853A854B855C850E942F3E9F77D80182
:10323000F7012B2F3A2F4F2F5E2F0E94D83F1816E1
:103240000CF477CEC201B1012D813E814F815885AA
:103250000E942F3E9F7720E030E040E450E40E943F
:10326000D83F18160CF465CE0E940C0B6E960FB664
:10327000F894DEBF0FBECDBFCF91DF911F910F91AC
:10328000FF90EF90DF90CF90BF90AF909F908F9086
:103290007F906F905F904F903F902F9008952F9266
:1032A0003F924F925F926F927F928F929F92AF92D6
:1032B000BF92CF92DF92EF92FF920F931F93DF9313
:1032C000CF93CDB7DEB76E970FB6F894DEBF0FBEC3
:1032D000CDBF7E876D87388B2F87E98AFA8A0B8B63
:1032E0001C8B46305105ACF00AE919E929E93EE3A7
:1032F0000D831E832F83388700E010E020E430E444
:1033000009871A872B873C8727E030E068E070E068
:1033100014C000E010E020E03FEB0D831E832F83FC
:10332000388700E010E020E430EC09871A872B870B
:103330003C8724E030E063E070E082FF0CC000E0F6
:1033400010E020E83FE30D831E832F83388724E0BD
:1033500030E067E070E055244424B0E83B2EAFE352
:103360002A2E01E010E0DC01A655BE4FBE8BAD8BCE
:10337000FA01E655FE4FF88FEF8BCB0186559E4F35
:103380009A8F898FD901A655BE4FBC8FAB8F1E8FE8
:103390000D8F59824A823B822C82ED8DFE8D3196B3
:1033A000FE8FED8F01E0E43FF0078CF4BF0188272A
:1033B00077FD8095982F0E94CA3E20E030E04AEFCA
:1033C00053E40E942F3E69837A838B839C83AD896B
:1033D000BE898C9190E0ED85FE858E1B9F0B8A3017
:1033E000910534F419821A82F0E8FB830FE30C8311
:1033F0002D853E852115310509F1AD89BE896C9178
:1034000070E0621B730B882777FD8095982F0E94D0
:10341000CA3E20E030E040E450E40E94E33FB9813E
:10342000AA811B810C812B2F3A2F412F502F0E94F4
:10343000E33FA62EB72EC82ED92E0AC00F2EF0E0DD
:10344000AF2EF0E0BF2EF0E0CF2EF0E0DF2EF02D1B
:10345000EF89F88D808190E00F851889801B910B92
:103460008A30910534F419821A8210E81B832FE305
:103470002C838F859889009709F1AF89B88D6C915D
:1034800070E0681B790B882777FD8095982F0E9444
:10349000CA3E29853A854B855C850E94E33FB98108
:1034A000AA811B810C812B2F3A2F412F502F0E9474
:1034B000E33F662E772E882E992E0AC00F2EF0E05D
:1034C0006F2EF0E07F2EF0E08F2EF0E09F2EF02D9B
:1034D00069897A898B899C8920E030E0A9010E9462
:1034E000283E882371F1E98DFA8D6081AB8DBC8D0A
:1034F0001C9170E0882777FD8095982F0E94CA3E26
:103500001B012C01612F70E0882777FD8095982F93
:103510000E94CA3E29893A894B895C890E94E33F0F
:103520009B01AC01C201B1010E94613D2D813E8130
:103530004F8158850E94E33F262E372E482E592E64
:103540000AC00F2EF0E02F2EF0E03F2EF0E04F2EBD
:10355000F0E05F2EF02DC201B1019F7720E030E056
:1035600040E251E40E94D83F181664F40F2EF0E0B8
:103570006F2EF0E07F2EF0E08F2EF0E09F2EF02DEA
:1035800064015301C601B5019F7720E030E048ECAB
:1035900052E40E94D83F1816F4F4C601B50120E0A9
:1035A00030E0A9010E94283E87FF0BC00F2EF0E0FB
:1035B000AF2EF0E0BF2EF8ECCF2EF2ECDF2EF02D88
:1035C0000AC00F2EF0E0AF2EF0E0BF2EF8ECCF2EA9
:1035D000F2E4DF2EF02DC401B3019F7720E030E04C
:1035E00048EC52E40E94D83F1816F4F4C401B30129
:1035F00020E030E0A9010E94283E87FF0BC00F2E7B
:10360000F0E06F2EF0E07F2EF8EC8F2EF2EC9F2E84
:10361000F02D0AC00F2EF0E06F2EF0E07F2EF8ECB8
:103620008F2EF2E49F2EF02DC601B501A401930167
:10363000820171010E94560D59814A813B812C8182
:10364000652F742F832F922F20E030E040EA50E462
:103650000E94E33F162F072FF82EE92EC601B50171
:1036600020E030E040E450E40E942F3E9F77D801F4
:10367000F7012B2F3A2F4F2F5E2F0E94D83F18169D
:103680000CF48BCEC401B30129853A854B855C854A
:103690000E942F3E9F77D801F7012B2F3A2F4F2FF3
:1036A0005E2F0E94D83F18160CF477CEC201B101EC
:1036B0002D813E814F8158850E942F3E9F7720E0CB
:1036C00030E040E450E40E94D83F18160CF465CE78
:1036D0000E940C0B6E960FB6F894DEBF0FBECDBFE6
:1036E000CF91DF911F910F91FF90EF90DF90CF90DE
:1036F000BF90AF909F908F907F906F905F904F9012
:103700003F902F9008952F923F924F925F926F9229
:103710007F928F929F92AF92BF92CF92DF92EF9261
:10372000FF920F931F93DF93CF93CDB7DEB76E97C2
:103730000FB6F894DEBF0FBECDBF7E876D87388B86
:103740002F87E98AFA8A0B8B1C8B46305105ACF027
:103750000AE919E929E93EEB0D831E832F83388797
:1037600000E010E020E430E409871A872B873C87CB
:1037700029E030E068E070E014C000E010E020E0F4
:103780003FE30D831E832F83388700E010E020E4A1
:1037900030EC09871A872B873C8722E030E063E012
:1037A00070E082FF0CC000E010E020E83FE30D83F2
:1037B0001E832F83388725E030E066E070E05524D3
:1037C000442400E8302E1FE3212E01E010E0DC014C
:1037D000A655BE4FBE8BAD8BFA01E655FE4FF88F56
:1037E000EF8BCB0186559E4F9A8F898FD901A655B5
:1037F000BE4FBC8FAB8F1E8F0D8F59824A823B828A
:103800002C82ED8DFE8D3196FE8FED8F01E0E43F31
:10381000F0078CF4BF01882777FD8095982F0E94D0
:10382000CA3E20E030E04AEF53E40E942F3E698315
:103830007A838B839C83AD89BE898C9190E0ED85E2
:10384000FE858E1B9F0B8A30910534F419821A82F3
:10385000F0E8FB830FE30C832D853E8521153105B0
:1038600009F1AD89BE896C9170E0621B730B8827EA
:1038700077FD8095982F0E94CA3E20E030E040E41A
:1038800050E40E94E33FB981AA811B810C812B2F58
:103890003A2F412F502F0E94E33FA62EB72EC82E5D
:1038A000D92E0AC00F2EF0E0AF2EF0E0BF2EF0E0D0
:1038B000CF2EF0E0DF2EF02DEF89F88D808190E0A3
:1038C0000F851889801B910B8A30910534F4198279
:1038D0001A8210E81B832FE32C838F859889009729
:1038E00009F1AF89B88D6C9170E0681B790B88275E
:1038F00077FD8095982F0E94CA3E29853A854B8591
:103900005C850E94E33FB981AA811B810C812B2F2A
:103910003A2F412F502F0E94E33F662E772E882E9C
:10392000992E0AC00F2EF0E06F2EF0E07F2EF0E00F
:103930008F2EF0E09F2EF02D69897A898B899C89E2
:1039400020E030E0A9010E94283E882371F1E98D32
:10395000FA8D6081AB8DBC8D1C9170E0882777FD5E
:103960008095982F0E94CA3E1B012C01612F70E0A8
:10397000882777FD8095982F0E94CA3E29893A8929
:103980004B895C890E94E33F9B01AC01C201B101FC
:103990000E94613D2D813E814F8158850E94E33F09
:1039A000262E372E482E592E0AC00F2EF0E02F2E2D
:1039B000F0E03F2EF0E04F2EF0E05F2EF02DC20140
:1039C000B1019F7720E030E040E251E40E94D83F0F
:1039D000181664F40F2EF0E06F2EF0E07F2EF0E06A
:1039E0008F2EF0E09F2EF02D64015301C601B5012A
:1039F0009F7720E030E048EC52E40E94D83F181650
:103A0000F4F4C601B50120E030E0A9010E94283E8F
:103A100087FF0BC00F2EF0E0AF2EF0E0BF2EF8ECCA
:103A2000CF2EF2ECDF2EF02D0AC00F2EF0E0AF2EDD
:103A3000F0E0BF2EF8ECCF2EF2E4DF2EF02DC40123
:103A4000B3019F7720E030E048EC52E40E94D83F79
:103A50001816F4F4C401B30120E030E0A9010E947B
:103A6000283E87FF0BC00F2EF0E06F2EF0E07F2E78
:103A7000F8EC8F2EF2EC9F2EF02D0AC00F2EF0E006
:103A80006F2EF0E07F2EF8EC8F2EF2E49F2EF02DBB
:103A9000C601B501A4019301820171010E94560D76
:103AA00059814A813B812C81652F742F832F922F5E
:103AB00020E030E040EA50E40E94E33F162F072F59
:103AC000F82EE92EC601B50120E030E040E450E4D4
:103AD0000E942F3E9F77D801F7012B2F3A2F4F2FAF
:103AE0005E2F0E94D83F18160CF48BCEC401B30190
:103AF00029853A854B855C850E942F3E9F77D801AA
:103B0000F7012B2F3A2F4F2F5E2F0E94D83F181608
:103B10000CF477CEC201B1012D813E814F815885D1
:103B20000E942F3E9F7720E030E040E450E40E9466
:103B3000D83F18160CF465CE0E940C0B6E960FB68B
:103B4000F894DEBF0FBECDBFCF91DF911F910F91D3
:103B5000FF90EF90DF90CF90BF90AF909F908F90AD
:103B60007F906F905F904F903F902F9008952F928D
:103B70003F924F925F926F927F928F929F92AF92FD
:103B8000BF92CF92DF92EF92FF920F931F93DF933A
:103B9000CF9300D000D000D0CDB7DEB79C01C901D3
:103BA000AA2797FDA095BA2F89839A83AB83BC83FC
:103BB0003E832D836BC0AD81BE81BD01882777FD1B
:103BC0008095982F0E94CA3E7B018C0169817A8181
:103BD0008B819C810E94CA3E9B01AC01C801B70148
:103BE0000E942F3E162F072FF82EE92E2D813E81A1
:103BF0008091B4018823E1F73E832D83B1E0B09337
:103C0000B40160917102709172028091730290917F
:103C10007402A0907502B0907602C0907702D090A6
:103C200078026090790270907A0280907B02909086
:103C30007C02D801F7012B2F302F4F2F5E2D0E94D1
:103C4000E33F1B012C01C601B501D801F7012B2F61
:103C5000302F4F2F5E2D0E94E33F5B016C01C401AA
:103C6000B301D801F7012B2F302F4F2F5E2D0E946B
:103C7000E33F7B018C01C201B101A60195010E94C5
:103C8000560DED81FE813197FE83ED832D813E81BE
:103C900037FF91CF0E940C0B26960FB6F894DEBF2B
:103CA0000FBECDBFCF91DF911F910F91FF90EF908D
:103CB000DF90CF90BF90AF909F908F907F906F904C
:103CC0005F904F903F902F9008952F923F924F9288
:103CD0005F926F927F928F929F92AF92BF92CF929C
:103CE000DF92EF92FF920F931F93DF93CF9300D059
:103CF00000D000D0CDB7DEB79E838D83AA2797FD75
:103D0000A095BA2F89839A83AB83BC8361C0AD81B0
:103D1000BE81BD01882777FD8095982F0E94CA3EFD
:103D20007B018C0169817A818B819C810E94CA3ED2
:103D30009B01AC01C801B7010E942F3EE62E172F50
:103D4000082FF92E609171027091720280917302B6
:103D500090917402A0907502B0907602C0907702A4
:103D6000D09078026090790270907A0280907B0205
:103D700090907C022E2D312F402F5F2D0E94E33F2B
:103D80001B012C01C601B5012E2D312F402F5F2DB7
:103D90000E94E33F5B016C01C401B3012E2D312F62
:103DA000402F5F2D0E94E33F7B018C01C201B101D6
:103DB000A60195010E94560DEFEFFFE83197F1F74C
:103DC00000C000002D813E81215030403E832D8374
:103DD0008D819E8197FF9BCF26960FB6F894DEBF0C
:103DE0000FBECDBFCF91DF911F910F91FF90EF904C
:103DF000DF90CF90BF90AF909F908F907F906F900B
:103E00005F904F903F902F9008952F923F924F9246
:103E10005F926F927F928F929F92AF92BF92CF925A
:103E2000DF92EF92FF920F931F93DF93CF93CDB763
:103E3000DEB728970FB6F894DEBF0FBECDBF9A83CA
:103E4000898320E030E0AA2797FDA095BA2F8B83C5
:103E50009C83AD83BE8365C0AF81B885BD018827D3
:103E600077FD8095982F0E94CA3E7B018C016B8163
:103E70007C818D819E810E94CA3E9B01AC01C8015C
:103E8000B7010E942F3E162F072FF82EE92E6091C2
:103E90007102709172028091730290917402A090ED
:103EA0007502B0907602C0907702D0907802609050
:103EB000790270907A0280907B0290907C02D80107
:103EC000F7012B2F3A2F4F2F5E2F0E94E33F1B014C
:103ED0002C01C601B501D801F7012B2F3A2F4F2F26
:103EE0005E2F0E94E33F5B016C01C401B301D80166
:103EF000F7012B2F3A2F4F2F5E2F0E94E33F7B01BC
:103F00008C01C201B101A60195010E94560DEFEF8F
:103F1000FFE83197F1F700C000002F8138852F5F4F
:103F20003F4F38872F838F819885A981BA818A175F
:103F30009B070CF491CF28960FB6F894DEBF0FBE06
:103F4000CDBFCF91DF911F910F91FF90EF90DF9048
:103F5000CF90BF90AF909F908F907F906F905F9029
:103F60004F903F902F9008951F920F920FB60F928F
:103F70000BB60F9211242F933F934F935F936F9340
:103F80007F938F939F93AF93BF93EF93FF938FEFA5
:103F90008DBD80E78CBD609161027091620280915D
:103FA00063029091640220E030E040E85FE30E9409
:103FB000623D9B01AC012093610230936202409309
:103FC0006302509364028091B401882329F08091A8
:103FD000B40181508093B4010E941B108091430270
:103FE000909144020097E1F086B390E0809590951F
:103FF000807F90700097A1F082E390E00E94651EA0
:1040000086B390E080959095807F90700097C1F77F
:104010000E94BA008823E1F382E390E00E94051F2A
:10402000FF91EF91BF91AF919F918F917F916F9190
:104030005F914F913F912F910F900BBE0F900FBE4C
:104040000F901F9018952F923F924F925F926F9210
:104050007F928F929F92AF92BF92CF92DF92EF9218
:10406000FF920F931F93DF93CF9300D000D000D027
:10407000CDB7DEB75C014B015E834D833901B401DE
:10408000882777FD8095982F0E94CA3E6B017C019E
:10409000B501882777FD8095982F0E94CA3E9B0125
:1040A000AC01C701B6010E94D53D6B017C01B8018E
:1040B000882777FD8095982F0E94CA3E2BED3FE020
:1040C00049E450E40E94E33F20E030E041EE54E454
:1040D0000E942F3E9B01AC01C701B6010E94623DC8
:1040E00069837A838B839C838D819E81009721F0E5
:1040F000800F911F9E838D832090A3053090A4058F
:104100004090A5055090A605C501B4014D815E8182
:1041100093010E94D11160917D0270917E02809185
:104120007F029091800220917D0230917E02409129
:104130007F0250918002E0908102F0908202009113
:1041400083021091840260908102709082028090BC
:104150008302909084020E94E33F5B016C01C801DE
:10416000B701A40193010E94E33F9B01AC01C6018A
:10417000B5010E94623D0E9450405B016C0181E0EC
:104180008093B40181E0682E712C88248394C0C090
:104190006091A3057091A4058091A5059091A60555
:1041A000A20191010E94613D2BED3FE049E450E402
:1041B0000E94E33F20E030E044E353E40E942F3EBE
:1041C0009B01AC01B981AA810B81EC806B2F7A2F06
:1041D000802F9E2D0E94613D0E942C3E9B01AC01D0
:1041E000C601B5010E94E33F9B01AC0120937D0213
:1041F00030937E0240937F02509380026091A3052A
:104200007091A4058091A5059091A605A201910148
:104210000E94613D2BED3FE049E450E40E94E33F02
:1042200020E030E044E353E40E942F3E9B01AC01C8
:10423000B981AA816B2F7A2F802F9E2D0E94613D1C
:104240000E9446409B01AC01C601B5010E94E33FBC
:104250009B01AC0120938102309382024093830240
:1042600050938402C3010E94D8128091B401882324
:10427000E1F78092B4018091710290917202A09155
:104280007302B09174028093710290937202A093B2
:104290007302B09374026091710270917202809106
:1042A00073029091740220917502309176024091D0
:1042B00077025091780220937502309376024093F2
:1042C00077025093780220917502309176024091E6
:1042D000770250917802E0907902F0907A02009192
:1042E0007B0210917C02E0927902F0927A020093B4
:1042F0007B0210937C02E0907902F0907A020091A8
:104300007B0210917C020E94560D0894611C711C66
:104310008091BD059091BE05681679060CF438CFE2
:1043200026960FB6F894DEBF0FBECDBFCF91DF91BA
:104330001F910F91FF90EF90DF90CF90BF90AF90C3
:104340009F908F907F906F905F904F903F902F90B5
:1043500008952F923F924F925F926F927F928F9229
:104360009F92AF92BF92CF92DF92EF92FF920F9304
:104370001F93DF93CF93CDB7DEB72E970FB6F89488
:10438000DEBF0FBECDBF2C011B014A0159011092A7
:104390005802109257021092560210925502B10123
:1043A000882777FD8095982F0E94CA3E6B017C017B
:1043B000B201882777FD8095982F0E94CA3E9B0105
:1043C000AC01C701B6010E94D53D6B017C01B8016B
:1043D000882777FD8095982F0E94CA3E2BED3FE0FD
:1043E00049E450E40E94E33F20E030E041EE54E431
:1043F0000E942F3E9B01AC01C701B6010E94623DA5
:104400006D837E838F8398878114910411F0800ED1
:10441000911E8091A3059091A405A091A505B0914E
:10442000A60589839A83AB83BC83C201B101A40131
:1044300095010E94D11160917D0270917E02809160
:104440007F029091800220917D0230917E02409106
:104450007F0250918002E0908102F09082020091F0
:104460008302109184026090810270908202809099
:104470008302909084020E94E33F5B016C01C801BB
:10448000B701A40193010E94E33F9B01AC01C60167
:10449000B5010E94623D0E9450405B016C0181E0C9
:1044A0008093B40181E090E0662477246418750855
:1044B00088249924821893089E878D877A86698636
:1044C0009C868B8635014601FBC00E948D00682FBB
:1044D00070E0920157FE02C029853A85C10137FE7E
:1044E00002C08B859C8582179307A4F4CB0186704C
:1044F00090708630910559F0CB018C70907061E01E
:1045000070E08C30910541F060E070E005C061E042
:1045100070E002C06470707081E090E00E94670FEC
:104520006091A3057091A4058091A5059091A605C1
:1045300029813A814B815C810E94613D2BED3FE0F6
:1045400049E450E40E94E33F20E030E044E353E4D8
:104550000E942F3E9B01AC01BD81AE810F81E8849A
:104560006B2F7A2F802F9E2D0E94613D0E942C3E42
:104570009B01AC01C401B3010E94E33F9B01AC016C
:1045800020937D0230937E0240937F0250938002FD
:104590006091A3057091A4058091A5059091A60551
:1045A00029813A814B815C810E94613D2BED3FE086
:1045B00049E450E40E94E33F20E030E044E353E468
:1045C0000E942F3E9B01AC01BD81AE816B2F7A2FE3
:1045D000802F9E2D0E94613D0E9446409B01AC01B0
:1045E000C401B3010E94E33F9B01AC01209381020F
:1045F0003093820240938302509384028D859E857E
:104600000E94D8122D853E858091B4018823E1F760
:104610003E872D8791E09093B40180917102909133
:104620007202A0917302B091740280937102909310
:104630007202A0937302B093740260917102709140
:1046400072028091730290917402209175023091F0
:104650007602409177025091780220937502309350
:1046600076024093770250937802E0907502F090C2
:1046700076020091770210917802209179023091B0
:104680007A0240917B0250917C0220937902309310
:104690007A0240937B0250937C02A0907902B09002
:1046A0007A02C0907B02D0907C02A801970186011B
:1046B00075010E94560DAD85BE851196BE87AD87EA
:1046C0008091BD059091BE05ED85FE85E817F9073F
:1046D0000CF4FBCE2E960FB6F894DEBF0FBECDBF06
:1046E000CF91DF911F910F91FF90EF90DF90CF90CE
:1046F000BF90AF909F908F907F906F905F904F9002
:104700003F902F9008952F923F924F925F926F9219
:104710007F928F929F92AF92BF92CF92DF92EF9251
:10472000FF920F931F93DF93CF93CDB7DEB72C97F4
:104730000FB6F894DEBF0FBECDBF3C014B015C87C6
:104740004B8719015801FA86E986260110925E020C
:1047500010925D0210925C0210925B0210925A025B
:10476000109259021092580210925702109256025B
:1047700010925502C114D104B9F1B601882777FD12
:104780008095982F0E94CA3E20E030E048EC52E429
:104790000E94E33F7B018C01B101882777FD809562
:1047A000982F0E94CA3E9B01AC01C801B7010E942C
:1047B0002F3E7B018C016091BB057091BC05882761
:1047C00077FD8095982F0E94CA3E20E030E040E0BF
:1047D0005FE30E94E33F9B01AC01C801B7010E9467
:1047E000623D0E94973E2B01B401882777FD80959A
:1047F000982F0E94CA3E7B018C01B301882777FD68
:104800008095982F0E94CA3E9B01AC01C801B70158
:104810000E94D53D7B018C01B501882777FD8095ED
:10482000982F0E94CA3E2BED3FE049E450E40E94DD
:10483000E33F20E030E041EE54E40E942F3E9B0134
:10484000AC01C801B7010E94623D6D837E838F83F6
:1048500098872B853C852115310521F02A0D3B1DBC
:104860003C872B878091A3059091A405A091A50575
:10487000B091A60589839A83AB83BC83C301B4013D
:104880004B855C8591010E94D11160917D027091F0
:104890007E0280917F029091800220917D02309172
:1048A0007E0240917F0250918002E0908102F09060
:1048B00082020091830210918402609081027090C4
:1048C000820280908302909084020E94E33F5B0109
:1048D0006C01C801B701A40193010E94E33F9B0151
:1048E000AC01C601B5010E94623D0E9450403B01EF
:1048F0004C0181E08093B40181E090E02224239474
:104900009C878B87DCC0AB85BC854A165B0644F46C
:1049100089859A850E94E3159C01009709F0DBC008
:104920006091A3057091A4058091A5059091A605BD
:1049300029813A814B815C810E94613D2BED3FE0F2
:1049400049E450E40E94E33F20E030E044E353E4D4
:104950000E942F3E9B01AC01BD81AE81EF80A884F7
:104960006B2F7A2F8E2D9A2D0E94613D0E942C3E36
:104970009B01AC01C401B3010E94E33F9B01AC0168
:1049800020937D0230937E0240937F0250938002F9
:104990006091A3057091A4058091A5059091A6054D
:1049A00029813A814B815C810E94613D2BED3FE082
:1049B00049E450E40E94E33F20E030E044E353E464
:1049C0000E942F3E9B01AC01BD81AE816B2F7A2FDF
:1049D0008E2D9A2D0E94613D0E9446409B01AC01A4
:1049E000C401B3010E94E33F9B01AC01209381020B
:1049F0003093820240938302509384028B859C857E
:104A00000E94D8122B853C858091B4018823E1F760
:104A10003C872B872092B4018091710290917202A1
:104A2000A0917302B091740280937102909372020C
:104A3000A0937302B093740260917102709172023C
:104A400080917302909174022091750230917602E8
:104A5000409177025091780220937502309376024C
:104A60004093770250937802E0907502F0907602BE
:104A700000917702109178022091790230917A02A8
:104A800040917B0250917C022093790230937A020C
:104A900040937B0250937C02A0907902B0907A02FE
:104AA000C0907B02D0907C02A8019701860175011D
:104AB0000E94560DEB85FC853196FC87EB87809133
:104AC000BD059091BE052B853C85281739070CF450
:104AD0001ACF20E030E0C9012C960FB6F894DEBF63
:104AE0000FBECDBFCF91DF911F910F91FF90EF903F
:104AF000DF90CF90BF90AF909F908F907F906F90FE
:104B00005F904F903F902F9008952F923F924F9239
:104B10005F926F927F928F929F92AF92BF92CF924D
:104B2000DF92EF92FF920F931F93DF93CF93CDB756
:104B3000DEB768970FB6F894DEBF0FBECDBF3C015D
:104B40002B015A8B498B3A8329834801FE82ED82DF
:104B50001601B886AF82A114B104D1F1B50188273E
:104B600077FD8095982F0E94CA3E20E030E048EC07
:104B700052E40E94E33F7B018C0129813A81B90113
:104B8000882777FD8095982F0E94CA3E9B01AC0133
:104B9000C801B7010E942F3E7B018C016091BB05CB
:104BA0007091BC05882777FD8095982F0E94CA3E9A
:104BB00020E030E040E05FE30E94E33F9B01AC0176
:104BC000C801B7010E94623D0E94973E78876F83BB
:104BD000B201882777FD8095982F0E94CA3E7B01FD
:104BE0008C01B301882777FD8095982F0E94CA3EDB
:104BF0009B01AC01C801B7010E94D53D7B018C012E
:104C0000B401882777FD8095982F0E94CA3E2BED2E
:104C10003FE049E450E40E94E33F20E030E041EE11
:104C200054E40E942F3E9B01AC01C801B7010E94D1
:104C3000623D6D877E878F87988B89899A890097D7
:104C400021F0880D991D9A8B898B8091A3059091F5
:104C5000A405A091A505B091A60589879A87AB8781
:104C6000BC87C301B20149895A8929813A810E94CE
:104C7000D11160917D0270917E0280917F029091AE
:104C8000800220917D0230917E0240917F025091FE
:104C90008002E0908102F0908202009183021091E4
:104CA00084026090810270908202809083029090D2
:104CB00084020E94E33F5B016C01C801B701A401BB
:104CC00093010E94E33F9B01AC01C601B5010E9424
:104CD000623D0E94504069837A838B839C8381E08C
:104CE0008093B4010F2EF0E0AF2EF0E0BF2EF0E87D
:104CF000CF2EFFE3DF2EF02D21E030E08D809E806F
:104D0000AAEAB1E08A0E9B1EEE27FF27E219F309FB
:104D1000FE8BED8B388F2F8B30C12F89388D8F8193
:104D2000988582179307ECF5AD81BE811097C9F184
:104D3000121413040CF04AC1A330B10519F0A830C5
:104D4000B10591F4F401808190E08219930997FFF5
:104D500003C0909581959F4F8530910594F0D401C3
:104D60006C918AE090E016C0F401808190E0821995
:104D7000930997FF03C0909581959F4F85309105CA
:104D80002CF40E940C0B2FE030E006C1D4016C9192
:104D900082E390E070E0A1010E948D0F5B016C0145
:104DA00015C16091A3057091A4058091A50590910E
:104DB000A60529853A854B855C850E94613D2BEDD2
:104DC0003FE049E450E40E94E33F20E030E044E368
:104DD00053E40E942F3E9B01AC01BD85AE85EF845C
:104DE00068886B2F7A2F8E2D962D0E94613D0E9430
:104DF0002C3E9B01AC0169817A818B819C810E9450
:104E0000E33F9B01AC0120937D0230937E024093EF
:104E10007F02509380026091A3057091A405809158
:104E2000A5059091A60529853A854B855C850E944C
:104E3000613D2BED3FE049E450E40E94E33F20E078
:104E400030E044E353E40E942F3E9B01AC01BD855A
:104E5000AE856B2F7A2F8E2D962D0E94613D0E947C
:104E600046409B01AC0169817A818B819C810E94C3
:104E7000E33F9B01AC012093810230938202409377
:104E80008302509384028F89988D0E94D8122F89B3
:104E9000388D8091B4018823E1F7388F2F8BB1E0F2
:104EA000B093B401609171027091720280917302AB
:104EB00090917402A60195010E94E33F9B01AC0111
:104EC00020937102309372024093730250937402E4
:104ED0008091710290917202A0917302B09174025C
:104EE000898B9A8BAB8BBC8B60917502709176022B
:104EF0008091770290917802A60195010E94E33F8C
:104F00009B01AC01209375023093760240937702A7
:104F1000509378024090750250907602609077022C
:104F2000709078026091790270917A0280917B0290
:104F300090917C02A60195010E94E33F9B01AC0188
:104F40002093790230937A0240937B0250937C0243
:104F5000E0907902F0907A0200917B0210917C023D
:104F600069897A898B899C89A30192010E94560DD7
:104F7000AF89B88D1196B88FAF8B8091BD05909198
:104F8000BE05EF89F88DE817F9070CF4C6CE20E0CE
:104F900030E002C02AE030E0C90168960FB6F8940C
:104FA000DEBF0FBECDBFCF91DF911F910F91FF905C
:104FB000EF90DF90CF90BF90AF909F908F907F90B9
:104FC0006F905F904F903F902F900895D4018C91F7
:104FD00090E0ED89FE898E179F070CF0E2CEDACFC4
:104FE0002F923F924F925F926F927F928F929F92F9
:104FF000AF92BF92CF92DF92EF92FF920F931F93E7
:10500000DF93CF93CDB7DEB760970FB6F894DEBFCE
:105010000FBECDBF9E838D838B014A011901809104
:10502000A3059091A405A091A505B091A60589833B
:105030009A83AB83BC8380E090E060E070E04D81B8
:105040005E8198010E94D11181E08093B40121E03A
:1050500030E0C801AA2797FDA095BA2F8B879C87BF
:10506000AD87BE87388B2F87DAC0AF85B889AE3160
:10507000B105C4F4BD01882777FD8095982F0E9463
:10508000CA3E2AE939E949E95FE30E94E33F20E0AB
:1050900030E040EF51E40E942F3EE62EF72E082F1D
:1050A000192F0AC00F2EFAE9EF2EF9E9FF2EF9E9C0
:1050B0000F2FFFE31F2FF02D8F8598890E94D812A4
:1050C0002F8538898091B4018823E1F7388B2F87A9
:1050D000B1E0B093B4016B857C858D859E850E947F
:1050E000CA3E2B013C016091A3057091A4058091FB
:1050F000A5059091A60529813A814B815C810E948A
:10510000613D2BED3FE049E450E40E94E33F20E0A5
:1051100030E044E353E40E942F3E0E942C3E5B01AA
:105120006C01C801B701A30192010E94E33FA601EF
:1051300095010E94E33F9B01AC01209371023093E3
:1051400072024093730250937402809171029091A5
:105150007202A0917302B09174028F839887A9871D
:10516000BA876091A3057091A4058091A5059091DF
:10517000A60529813A814B815C810E94613D2BED1E
:105180003FE049E450E40E94E33F20E030E044E3A4
:1051900053E40E942F3E0E9446405B016C01C8010F
:1051A000B7019058A30192010E94E33FA601950127
:1051B0000E94E33F9B01AC0120937502309376027D
:1051C00040937702509378022091750230917602D5
:1051D00040917702509178028091790290917A0201
:1051E000A0917B02B0917C028093790290937A0225
:1051F000A0937B02B0937C02E0907902F0907A0257
:1052000000917B0210917C026F81788589859A8557
:105210000E94560DAF85B8891196B88BAF878091E3
:10522000BD059091BE05EF85F889E817F9070CF4E4
:105230001CCF8114910449F12D813E8137FF05C0B7
:1052400020EDE22E27E0F22E04C090E3E92E98EF45
:10525000F92E60917502709176028091770290919B
:1052600078029F770E94973E8B019C0180E090E03E
:10527000B70140E050E0980100E010E074016101E6
:10528000AA24BB240E94852503C0C1010E94B71D2A
:1052900060960FB6F894DEBF0FBECDBFCF91DF9101
:1052A0001F910F91FF90EF90DF90CF90BF90AF9044
:1052B0009F908F907F906F905F904F903F902F9036
:1052C00008952F923F924F925F926F927F928F92AA
:1052D0009F92AF92BF92CF92DF92EF92FF920F9385
:1052E0001F93DF93CF93CDB7DEB768970FB6F894CF
:1052F000DEBF0FBECDBF3C011B0158874F833A87ED
:105300002987C801FA8AE98ADC8ACB8A77FE11C02C
:1053100020E030E040EA51E42093A7053093A8054F
:105320004093A9055093AA0520E030E040E450E402
:105330000CC020E030E040EA50E42093A705309311
:10534000A8054093A9055093AA05209365053093BD
:10535000660540936705509368052091BB05309121
:10536000BC051216130624F40E94BE1497FD49C111
:105370008091A3059091A405A091A505B091A605E3
:10538000C30160E070E040E050E091010E94D11163
:1053900081E08093B40180E090E0A0E8BFE38B83DC
:1053A0009C83AD83BE8331E0C32ED12C8824992405
:1053B000AA24BB241A821982C101AA2797FDA095AD
:1053C000BA2F8D8B9E8BAF8BB88FAF81B885A655CA
:1053D000BE4FBC87AB870AC18B899C890E946D1424
:1053E0001C010894A11CB11CB501882777FD80958C
:1053F000982F0E94CA3E7B018C016D897E898F891E
:10540000988D0E94CA3E9B01AC0160E070E086E985
:1054100095E40E942F3E9B01AC01C801B7010E9498
:10542000D83F18164CF4BBE02B1631042CF008942E
:10543000811C911CAA24BB24E989FA898E169F0637
:1054400009F4E2C0EF80F884E114F10419F1AB85AE
:10545000BC858C9190E0E985FA858E1B9F0B97FFA8
:1054600003C0909581959F4F853091052CF40E9443
:105470000C0B4FE050E0C9C0AB85BC856C9182E35A
:1054800090E070E049855A850E948D0F6B837C8384
:105490008D839E83BAE02B16310414F43A8229825C
:1054A000C6010E94D8128091B4018823E1F7E1E09F
:1054B000E093B40160917102709172028091730265
:1054C000909174022B813C814D815E810E94E33F6B
:1054D0009B01AC01209371023093720240937302DE
:1054E000509374028091710290917202A0917302A4
:1054F000B09174028D879E87AF87B88BA981BA81DE
:10550000BD01882777FD8095982F0E94CA3E7B01B8
:105510008C012091A7053091A8054091A9055091D3
:10552000AA050E94E33F9B01AC01209375023093D2
:105530007602409377025093780220907502309063
:105540007602409077025090780220916505309164
:1055500066054091670550916805C801B7010E9432
:10556000E33F77FE05C020E030E040E85FEB04C099
:1055700020E030E040E85FE30E94E33F9B01AC01A4
:105580002093790230937A0240937B0250937C02FD
:10559000E0907902F0907A0200917B0210917C02F7
:1055A0006D857E858F859889A20191010E94560D97
:1055B00080E090E0DC018093790290937A02A093DE
:1055C0007B02B0937C028091790290917A02A09143
:1055D0007B02B0917C028093750290937602A09337
:1055E0007702B09378020894C11CD11C8091BD054C
:1055F0009091BE05C816D9060CF4EECE40E050E0FE
:1056000004C04FEF5FEF01C0A101CA0168960FB659
:10561000F894DEBF0FBECDBFCF91DF911F910F91E8
:10562000FF90EF90DF90CF90BF90AF909F908F90C2
:105630007F906F905F904F903F902F9008952F92A2
:105640003F924F925F926F927F928F929F92AF9212
:10565000BF92CF92DF92EF92FF920F931F93DF934F
:10566000CF93CDB7DEB7E0970FB6F894DEBF0FBE8D
:10567000CDBF9C838B837A8369833A0149011A8F5A
:10568000098FFE82ED82B886AF82C901059782300C
:10569000910530F49B01309521953F4F3A83298342
:1056A00036E08316910424F4AA24AA94BA2C03C0E9
:1056B00051E0A52EB12C89819A810097A9F4AB8184
:1056C000BC81B7FF11C080E090E0A0E0BFE3809311
:1056D000AD059093AE05A093AF05B093B0058DECEA
:1056E0009CECACE4BEE310C080E090E0A0E8BFE337
:1056F0008093AD059093AE05A093AF05B093B00530
:1057000080E090E0A0E0BFE38093290590932A0514
:10571000A0932B05B0932C05EF81F885309731F5D8
:1057200029813A812115310509F45AC08B819C8168
:1057300097FF56C08091BB059091BC0518161906BD
:105740000CF04EC0C901909581959F4FA89EA00175
:10575000A99E500DB89E500D112480E090E060E0AD
:1057600070E028E230E00E943E163AC0AF81B88572
:10577000BD01882777FD8095982F0E94CA3E20E0C2
:1057800030E048EC52E40E94E33F7B018C01B3011E
:10579000882777FD8095982F0E94CA3E9B01AC0117
:1057A000C801B7010E942F3E7B018C016091BB05AF
:1057B0007091BC05882777FD8095982F0E94CA3E7E
:1057C00020E030E040E05FE30E94E33F9B01AC015A
:1057D000C801B7010E94623D0E94973E78876F839F
:1057E0008091A3059091A405A091A505B091A6056F
:1057F0008B819C8160E070E049815A8193010E9415
:10580000D11181E08093B40180E090E0A0E8BFE393
:105810008D879E87AF87B88B41E0242E312C80E0A6
:1058200090E0DC01898B9A8BAB8BBC8B19861A8636
:1058300055244424D401A655BE4FBC8FAB8F8F8115
:105840009885AA2797FDA095BA2F8D8F9E8FAF8F31
:10585000B8A3C301AA2797FDA095BA2F89A39AA33D
:10586000ABA3BCA3AD81BE81A655BE4FBC87AB87A1
:10587000EE27FF27EC19FD09FEA3EDA389819A818C
:10588000AA2797FDA095BA2F8FA398A7A9A7BAA773
:10589000C501AA2797FDA095BA2F8BA79CA7ADA7F6
:1058A000BEA7D8AACFA621C2AF81B885A215B305DD
:1058B0000CF0EEC0ED81FE81309709F446C02FA5B3
:1058C00038A9121613060CF037C2E330F10519F0AF
:1058D000E830F105B1F4AB85BC858C9190E0EFA583
:1058E000F8A98E1B9F0B97FF03C0909581959F4F42
:1058F00085309105B4F0AB85BC856C918AE090E071
:105900001AC0EB85FC85808190E02FA538A9821B09
:10591000930B97FF03C0909581959F4F853091051C
:105920002CF40E940C0B2FE030E0ECC1AB85BC8561
:105930006C9182E390E070E04FA558A90E948D0F12
:105940006D877E878F87988BF7C18FA598A90E9456
:10595000E3159C01ED81FE81309719F4009709F061
:10596000D1C1AB8DBC8D6C9170E0E98DFA8D6E1B51
:105970007F0B882777FD8095982F0E94CA3E162FAF
:10598000072FF82E492E2FA538A937FF79C0C1015E
:1059900065E070E00E947343009709F04BC0B101CD
:1059A000882777FD8095982F0E94CA3E3B014C01C5
:1059B0006D8D7E8D8F8D98A10E94CA3E5B016C011A
:1059C00069A17AA18BA19CA10E94CA3E9B01AC0156
:1059D00060E070E48CE196E40E942F3E9B01AC01F4
:1059E000C601B5010E94623D5B016C016091BB057F
:1059F0007091BC05882777FD8095982F0E94CA3E3C
:105A00009B01AC01C601B5010E94623D9B01AC0146
:105A1000C401B3010E94D83F181664F4A801652F91
:105A2000742F8F2D942D0E94973E6C5F7F4F6930AD
:105A3000710560F069897A898B899C8920E030E062
:105A4000A9010E94283E8823D9F008C080E090E098
:105A5000A0E8BFE3898B9A8BAB8BBC8BA801652F29
:105A6000702F8F2D942D0E94973E272F862F922FD7
:105A700097FF03C0909581959F4F8531910524F440
:105A800019870A875F2C04C019861A865524442476
:105A9000C1010E94D81260917102709172028091CE
:105AA0007302909174022D853E854F8558890E941E
:105AB000E33F9B01AC01209371023093720240934B
:105AC0007302509374026090710270907202809021
:105AD0007302909074026FA178A589A59AA50E947F
